:020000020000fc
:0100000000ff
:0100010000fe
:0100020000fd
:0100030001fb
:0100040003f8
:0100050003f7
:0100060001f8
:0100070003f5
:0100080003f4
:0100090001f5
:01000a0000f5
:01000b0003f1
:01000c0000f3
:01000d0002f0
:01000e0000f1
:01000f0002ee
:0100100003ec
:0100110002ec
:0100120002eb
:0100130003e9
:0100140001ea
:0100150001e9
:0100160000e9
:0100170000e8
:0100180000e7
:0100190003e3
:01001a0000e5
:01001b0003e1
:01001c0003e0
:01001d0003df
:01001e0003de
:01001f0002de
:0100200000df
:0100210000de
:0100220000dd
:0100230001db
:0100240003d8
:0100250002d8
:0100260001d8
:0100270003d5
:0100280003d4
:0100290002d4
:01002a0003d2
:01002b0001d3
:01002c0002d1
:01002d0002d0
:01002e0003ce
:01002f0001cf
:0100300002cd
:0100310003cb
:0100320002cb
:0100330001cb
:0100340002c9
:0100350003c7
:0100360002c7
:0100370000c8
:0100380001c6
:0100390001c5
:01003a0000c5
:01003b0002c2
:01003c0002c1
:01003d0001c1
:01003e0003be
:01003f0001bf
:0100400002bd
:0100410002bc
:0100420001bc
:0100430003b9
:0100440000bb
:0100450001b9
:0100460000b9
:0100470003b5
:0100480002b5
:0100490003b3
:01004a0003b2
:01004b0002b2
:01004c0003b0
:01004d0002b0
:01004e0001b0
:01004f0001af
:0100500000af
:0100510003ab
:0100520003aa
:0100530000ac
:0100540003a8
:0100550000aa
:0100560000a9
:0100570002a6
:0100580002a5
:0100590003a3
:01005a0001a4
:01005b0000a4
:01005c0000a3
:01005d00039f
:01005e00029f
:01005f00039d
:01006000039c
:01006100009e
:01006200019c
:01006300019b
:010064000299
:01006500009a
:010066000198
:010067000098
:010068000295
:010069000393
:01006a000392
:01006b000193
:01006c000390
:01006d00038f
:01006e00028f
:01006f00038d
:01007000028d
:01007100018d
:01007200018c
:010073000389
:01007400008b
:010075000387
:010076000287
:010077000187
:010078000285
:010079000284
:01007a000382
:01007b000282
:01007c000281
:01007d00037f
:01007e00037e
:01007f000080
:01008000027d
:01008100037b
:01008200007d
:010083000379
:01008400017a
:010085000278
:010086000376
:010087000276
:010088000077
:010089000175
:01008a000075
:01008b000173
:01008c000073
:01008d000270
:01008e00036e
:01008f00026e
:01009000016e
:01009100016d
:01009200026b
:01009300026a
:01009400016a
:010095000268
:010096000267
:010097000167
:010098000067
:010099000066
:01009a000263
:01009b000361
:01009c000063
:01009d000260
:01009e000160
:01009f00025e
:0100a000015e
:0100a100035b
:0100a200015c
:0100a300005c
:0100a4000259
:0100a5000258
:0100a6000257
:0100a7000355
:0100a8000354
:0100a9000056
:0100aa000154
:0100ab000351
:0100ac000251
:0100ad00034f
:0100ae000150
:0100af00034d
:0100b000004f
:0100b100034b
:0100b200024b
:0100b300014b
:0100b4000249
:0100b500004a
:0100b6000148
:0100b7000048
:0100b8000344
:0100b9000244
:0100ba000342
:0100bb000341
:0100bc000142
:0100bd000240
:0100be00033e
:0100bf00033d
:0100c000033c
:0100c100023c
:0100c200033a
:0100c3000339
:0100c400003b
:0100c5000139
:0100c6000336
:0100c7000236
:0100c8000235
:0100c9000234
:0100ca000134
:0100cb000331
:0100cc000132
:0100cd000032
:0100ce000130
:0100cf000030
:0100d000002f
:0100d100032b
:0100d200032a
:0100d300002c
:0100d400002b
:0100d5000327
:0100d6000326
:0100d7000325
:0100d8000225
:0100d9000224
:0100da000322
:0100db000222
:0100dc000122
:0100dd000121
:0100de00021f
:0100df000020
:0100e000031c
:0100e100031b
:0100e200001d
:0100e3000319
:0100e4000318
:0100e5000218
:0100e6000316
:0100e7000117
:0100e8000314
:0100e9000214
:0100ea000213
:0100eb000212
:0100ec000310
:0100ed00030f
:0100ee00030e
:0100ef000010
:0100f000010e
:0100f100020c
:0100f200020b
:0100f300000c
:0100f400010a
:0100f5000208
:0100f6000108
:0100f7000008
:0100f8000007
:0100f9000204
:0100fa000203
:0100fb000004
:0100fc000300
:0100fd000002
:0100fe000001
:0100ff0003fd
:00000001FF
